{
  "contractName": "Client",
  "abi": [
    {
      "constant": true,
      "inputs": [],
      "name": "theperson",
      "outputs": [
        {
          "name": "",
          "type": "address"
        }
      ],
      "payable": false,
      "stateMutability": "view",
      "type": "function"
    },
    {
      "inputs": [],
      "payable": false,
      "stateMutability": "nonpayable",
      "type": "constructor"
    },
    {
      "anonymous": false,
      "inputs": [
        {
          "indexed": false,
          "name": "Name",
          "type": "bytes32"
        },
        {
          "indexed": false,
          "name": "Email",
          "type": "bytes32"
        },
        {
          "indexed": false,
          "name": "Object_Role",
          "type": "uint8"
        }
      ],
      "name": "LoginSetInfo",
      "type": "event"
    },
    {
      "anonymous": false,
      "inputs": [
        {
          "indexed": false,
          "name": "Name",
          "type": "bytes32"
        },
        {
          "indexed": false,
          "name": "Address",
          "type": "address"
        },
        {
          "indexed": false,
          "name": "Object_role",
          "type": "uint8"
        }
      ],
      "name": "LoginSetRole",
      "type": "event"
    },
    {
      "anonymous": false,
      "inputs": [
        {
          "indexed": false,
          "name": "Count",
          "type": "uint256"
        },
        {
          "indexed": false,
          "name": "IDNumber",
          "type": "bytes32"
        },
        {
          "indexed": false,
          "name": "RealName",
          "type": "string"
        },
        {
          "indexed": false,
          "name": "Gender",
          "type": "string"
        },
        {
          "indexed": false,
          "name": "AddressSelect",
          "type": "string"
        }
      ],
      "name": "RealAuthenticate",
      "type": "event"
    },
    {
      "constant": false,
      "inputs": [
        {
          "name": "_name",
          "type": "bytes32"
        },
        {
          "name": "_password",
          "type": "bytes32"
        },
        {
          "name": "_email",
          "type": "bytes32"
        },
        {
          "name": "_object_role",
          "type": "uint8"
        }
      ],
      "name": "SetObjectInfo",
      "outputs": [
        {
          "name": "",
          "type": "bool"
        }
      ],
      "payable": false,
      "stateMutability": "nonpayable",
      "type": "function"
    },
    {
      "constant": true,
      "inputs": [
        {
          "name": "_count",
          "type": "uint256"
        }
      ],
      "name": "GetObjectInfo",
      "outputs": [
        {
          "name": "",
          "type": "bytes32"
        },
        {
          "name": "",
          "type": "bytes32"
        },
        {
          "name": "",
          "type": "address"
        },
        {
          "name": "",
          "type": "uint8"
        }
      ],
      "payable": false,
      "stateMutability": "view",
      "type": "function"
    },
    {
      "constant": false,
      "inputs": [
        {
          "name": "_count",
          "type": "uint256"
        },
        {
          "name": "_IDnumber",
          "type": "bytes32"
        },
        {
          "name": "_realName",
          "type": "string"
        },
        {
          "name": "_addressSelect",
          "type": "string"
        },
        {
          "name": "_gender",
          "type": "string"
        }
      ],
      "name": "RealNameAuthenticate",
      "outputs": [
        {
          "name": "",
          "type": "bool"
        }
      ],
      "payable": false,
      "stateMutability": "nonpayable",
      "type": "function"
    },
    {
      "constant": true,
      "inputs": [
        {
          "name": "_count",
          "type": "uint256"
        }
      ],
      "name": "GetRealName",
      "outputs": [
        {
          "name": "",
          "type": "bytes32"
        },
        {
          "name": "",
          "type": "string"
        },
        {
          "name": "",
          "type": "string"
        },
        {
          "name": "",
          "type": "string"
        }
      ],
      "payable": false,
      "stateMutability": "view",
      "type": "function"
    },
    {
      "constant": true,
      "inputs": [],
      "name": "GetAllObjectInfo",
      "outputs": [
        {
          "name": "",
          "type": "uint256[]"
        },
        {
          "name": "",
          "type": "address[]"
        },
        {
          "name": "",
          "type": "bytes32[]"
        },
        {
          "name": "",
          "type": "bytes32[]"
        },
        {
          "name": "",
          "type": "uint8[]"
        }
      ],
      "payable": false,
      "stateMutability": "view",
      "type": "function"
    },
    {
      "constant": true,
      "inputs": [
        {
          "name": "_email",
          "type": "bytes32"
        },
        {
          "name": "_password",
          "type": "bytes32"
        }
      ],
      "name": "login",
      "outputs": [
        {
          "name": "",
          "type": "uint8"
        },
        {
          "name": "",
          "type": "uint256"
        }
      ],
      "payable": false,
      "stateMutability": "view",
      "type": "function"
    },
    {
      "constant": false,
      "inputs": [
        {
          "name": "_count",
          "type": "uint256"
        },
        {
          "name": "_role",
          "type": "uint8"
        }
      ],
      "name": "SetRole",
      "outputs": [
        {
          "name": "",
          "type": "bool"
        }
      ],
      "payable": false,
      "stateMutability": "nonpayable",
      "type": "function"
    },
    {
      "constant": true,
      "inputs": [
        {
          "name": "_count",
          "type": "uint256"
        }
      ],
      "name": "GetRole",
      "outputs": [
        {
          "name": "",
          "type": "uint8"
        },
        {
          "name": "",
          "type": "bytes32"
        }
      ],
      "payable": false,
      "stateMutability": "view",
      "type": "function"
    },
    {
      "constant": true,
      "inputs": [],
      "name": "GetCount",
      "outputs": [
        {
          "name": "",
          "type": "uint256"
        }
      ],
      "payable": false,
      "stateMutability": "view",
      "type": "function"
    }
  ],
  "bytecode": "0x608060405234801561001057600080fd5b5033600860006101000a81548173ffffffffffffffffffffffffffffffffffffffff021916908373ffffffffffffffffffffffffffffffffffffffff16021790555060008081905550611582806100686000396000f3006080604052600436106100a4576000357c0100000000000000000000000000000000000000000000000000000000900463ffffffff1680630ab93971146100a95780633946520e146100d4578063400c021e146102605780636171e09b14610300578063621d9f4f1461035e578063635a9f22146104eb5780637f53169514610553578063a77cc756146105a5578063b812360b146105fc578063e853381114610721575b600080fd5b3480156100b557600080fd5b506100be610793565b6040518082815260200191505060405180910390f35b3480156100e057600080fd5b506100e961079c565b60405180806020018060200180602001806020018060200186810386528b818151815260200191508051906020019060200280838360005b8381101561013c578082015181840152602081019050610121565b5050505090500186810385528a818151815260200191508051906020019060200280838360005b8381101561017e578082015181840152602081019050610163565b50505050905001868103845289818151815260200191508051906020019060200280838360005b838110156101c05780820151818401526020810190506101a5565b50505050905001868103835288818151815260200191508051906020019060200280838360005b838110156102025780820151818401526020810190506101e7565b50505050905001868103825287818151815260200191508051906020019060200280838360005b83811015610244578082015181840152602081019050610229565b505050509050019a505050505050505050505060405180910390f35b34801561026c57600080fd5b5061028b600480360381019080803590602001909291905050506109c5565b60405180856000191660001916815260200184600019166000191681526020018373ffffffffffffffffffffffffffffffffffffffff1673ffffffffffffffffffffffffffffffffffffffff1681526020018260038111156102e957fe5b60ff16815260200194505050505060405180910390f35b34801561030c57600080fd5b5061032b60048036038101908080359060200190929190505050610a63565b6040518083600381111561033b57fe5b60ff16815260200182600019166000191681526020019250505060405180910390f35b34801561036a57600080fd5b5061038960048036038101908080359060200190929190505050610aaa565b604051808560001916600019168152602001806020018060200180602001848103845287818151815260200191508051906020019080838360005b838110156103df5780820151818401526020810190506103c4565b50505050905090810190601f16801561040c5780820380516001836020036101000a031916815260200191505b50848103835286818151815260200191508051906020019080838360005b8381101561044557808201518184015260208101905061042a565b50505050905090810190601f1680156104725780820380516001836020036101000a031916815260200191505b50848103825285818151815260200191508051906020019080838360005b838110156104ab578082015181840152602081019050610490565b50505050905090810190601f1680156104d85780820380516001836020036101000a031916815260200191505b5097505050505050505060405180910390f35b3480156104f757600080fd5b5061052860048036038101908080356000191690602001909291908035600019169060200190929190505050610ced565b6040518083600381111561053857fe5b60ff1681526020018281526020019250505060405180910390f35b34801561055f57600080fd5b5061058b60048036038101908080359060200190929190803560ff169060200190929190505050610e80565b604051808215151515815260200191505060405180910390f35b3480156105b157600080fd5b506105ba610f62565b604051808273ffffffffffffffffffffffffffffffffffffffff1673ffffffffffffffffffffffffffffffffffffffff16815260200191505060405180910390f35b34801561060857600080fd5b50610707600480360381019080803590602001909291908035600019169060200190929190803590602001908201803590602001908080601f0160208091040260200160405190810160405280939291908181526020018383808284378201915050505050509192919290803590602001908201803590602001908080601f0160208091040260200160405190810160405280939291908181526020018383808284378201915050505050509192919290803590602001908201803590602001908080601f0160208091040260200160405190810160405280939291908181526020018383808284378201915050505050509192919290505050610f88565b604051808215151515815260200191505060405180910390f35b34801561072d57600080fd5b50610779600480360381019080803560001916906020019092919080356000191690602001909291908035600019169060200190929190803560ff1690602001909291905050506111c5565b604051808215151515815260200191505060405180910390f35b60008054905090565b606080606080606060026006600360046007848054806020026020016040519081016040528092919081815260200182805480156107f957602002820191906000526020600020905b8154815260200190600101908083116107e5575b505050505094508380548060200260200160405190810160405280929190818152602001828054801561088157602002820191906000526020600020905b8160009054906101000a900473ffffffffffffffffffffffffffffffffffffffff1673ffffffffffffffffffffffffffffffffffffffff1681526020019060010190808311610837575b50505050509350828054806020026020016040519081016040528092919081815260200182805480156108d757602002820191906000526020600020905b815460001916815260200190600101908083116108bf575b505050505092508180548060200260200160405190810160405280929190818152602001828054801561092d57602002820191906000526020600020905b81546000191681526020019060010190808311610915575b50505050509150808054806020026020016040519081016040528092919081815260200182805480156109ad57602002820191906000526020600020906000905b82829054906101000a900460ff16600381111561098757fe5b8152602001906001019060208260000104928301926001038202915080841161096e5790505b50505050509050945094509450945094509091929394565b600080600080600160008681526020019081526020016000206000015460016000878152602001908152602001600020600201546001600088815260200190815260200160002060030160009054906101000a900473ffffffffffffffffffffffffffffffffffffffff166001600089815260200190815260200160002060030160149054906101000a900460ff1693509350935093509193509193565b6000806001600084815260200190815260200160002060030160149054906101000a900460ff16600160008581526020019081526020016000206000015491509150915091565b600060608060606001600086815260200190815260200160002060040154600160008781526020019081526020016000206005016001600088815260200190815260200160002060060160016000898152602001908152602001600020600701828054600181600116156101000203166002900480601f016020809104026020016040519081016040528092919081815260200182805460018160011615610100020316600290048015610b9f5780601f10610b7457610100808354040283529160200191610b9f565b820191906000526020600020905b815481529060010190602001808311610b8257829003601f168201915b50505050509250818054600181600116156101000203166002900480601f016020809104026020016040519081016040528092919081815260200182805460018160011615610100020316600290048015610c3b5780601f10610c1057610100808354040283529160200191610c3b565b820191906000526020600020905b815481529060010190602001808311610c1e57829003601f168201915b50505050509150808054600181600116156101000203166002900480601f016020809104026020016040519081016040528092919081815260200182805460018160011615610100020316600290048015610cd75780601f10610cac57610100808354040283529160200191610cd7565b820191906000526020600020905b815481529060010190602001808311610cba57829003601f168201915b5050505050905093509350935093509193509193565b60008060007f313130313939353337374071712e636f6d00000000000000000000000000000060010285600019161415610d66577f4689bd31f00000000000000000000000000000000000000000000000000000006001028460001916141515610d5657600080fd5b6003600080905092509250610e78565b600090505b600054811015610e025784600019166001600083815260200190815260200160002060020154600019161415610df5578360001916600160008381526020019081526020016000206001015460001916141515610dc757600080fd5b6001600082815260200190815260200160002060030160149054906101000a900460ff168192509250610e78565b8080600101915050610d6b565b7f313130313939353337374071712e636f6d0000000000000000000000000000006001028560001916141515610e3757600080fd5b7f4689bd31f00000000000000000000000000000000000000000000000000000006001028460001916141515610e6c57600080fd5b60036000809050925092505b509250929050565b6000816001600085815260200190815260200160002060030160146101000a81548160ff02191690836003811115610eb457fe5b02179055507ff83ae161dfb1b2cfeb9ad2270958da95a5e880b5494b78eabdb9e95891d7e53d600160008581526020019081526020016000206000015433846040518084600019166000191681526020018373ffffffffffffffffffffffffffffffffffffffff1673ffffffffffffffffffffffffffffffffffffffff168152602001826003811115610f4357fe5b60ff168152602001935050505060405180910390a16001905092915050565b600860009054906101000a900473ffffffffffffffffffffffffffffffffffffffff1681565b60008460016000888152602001908152602001600020600401816000191690555083600160008881526020019081526020016000206005019080519060200190610fd39291906114b1565b5082600160008881526020019081526020016000206007019080519060200190610ffe9291906114b1565b50816001600088815260200190815260200160002060060190805190602001906110299291906114b1565b507f0d06cffd357a45f675052cb8d6fe0d827ff6e56632b956d34401b068647ac3488686868686604051808681526020018560001916600019168152602001806020018060200180602001848103845287818151815260200191508051906020019080838360005b838110156110ac578082015181840152602081019050611091565b50505050905090810190601f1680156110d95780820380516001836020036101000a031916815260200191505b50848103835286818151815260200191508051906020019080838360005b838110156111125780820151818401526020810190506110f7565b50505050905090810190601f16801561113f5780820380516001836020036101000a031916815260200191505b50848103825285818151815260200191508051906020019080838360005b8381101561117857808201518184015260208101905061115d565b50505050905090810190601f1680156111a55780820380516001836020036101000a031916815260200191505b509850505050505050505060405180910390a16001905095945050505050565b600084600160008054815260200190815260200160002060000181600019169055508360016000805481526020019081526020016000206001018160001916905550826001600080548152602001908152602001600020600201816000191690555081600160008054815260200190815260200160002060030160146101000a81548160ff0219169083600381111561125a57fe5b021790555033600160008054815260200190815260200160002060030160006101000a81548173ffffffffffffffffffffffffffffffffffffffff021916908373ffffffffffffffffffffffffffffffffffffffff1602179055506002600054908060018154018082558091505090600182039060005260206000200160009091929091909150555060038590806001815401808255809150509060018203906000526020600020016000909192909190915090600019169055506004839080600181540180825580915050906001820390600052602060002001600090919290919091509060001916905550600584908060018154018082558091505090600182039060005260206000200160009091929091909150906000191690555060063390806001815401808255809150509060018203906000526020600020016000909192909190916101000a81548173ffffffffffffffffffffffffffffffffffffffff021916908373ffffffffffffffffffffffffffffffffffffffff16021790555050600782908060018154018082558091505090600182039060005260206000209060209182820401919006909192909190916101000a81548160ff0219169083600381111561142957fe5b02179055505060008081548092919060010191905055507f31854cb350dda6deed27e3b97ff86283b6acaa495f8b54241d69b4b7a70a2f8c858484604051808460001916600019168152602001836000191660001916815260200182600381111561149057fe5b60ff168152602001935050505060405180910390a160019050949350505050565b828054600181600116156101000203166002900490600052602060002090601f016020900481019282601f106114f257805160ff1916838001178555611520565b82800160010185558215611520579182015b8281111561151f578251825591602001919060010190611504565b5b50905061152d9190611531565b5090565b61155391905b8082111561154f576000816000905550600101611537565b5090565b905600a165627a7a7230582057bbaa223962a280d83b4887b07963c8d4f6be7ea5ec166e14372f01f3b5207b0029",
  "source": "pragma solidity ^0.4.24;\r\n///用户对象合约\r\ncontract Client{\r\n\tenum roles{Producer,Tradesman,Consumer,none}\t///用户身份枚举\r\n\tstruct ObjectInfo{\t\t///对象结构体信息\r\n\t\tbytes32 name;\r\n\t\tbytes32 password;\r\n\t\tbytes32 email;\r\n\t\taddress object_address;\r\n\t\troles object_role;\r\n\t\tbytes32 IDnumber;\r\n\t\tstring realName;\r\n\t\tstring gender;\r\n\t\tstring addressSelect;\r\n\t}\r\n\tuint count;\r\n\tmapping(uint => ObjectInfo)ObjectDB;\t\t///用户对象\r\n\tuint[] count_info;\r\n\tbytes32[] name_info;\r\n\tbytes32[] email_info;\r\n\tbytes32[] password_info;\r\n\taddress[] address_info;\r\n\troles[] object_role_info;\r\n\taddress public theperson;\r\n\t///对象登录信息设置日志\r\n\tevent LoginSetInfo(bytes32 Name,\r\n\t\tbytes32 Email,\r\n\t\troles Object_Role);\r\n\t///身份设置日志\r\n\tevent LoginSetRole(bytes32 Name, \r\n\t\taddress Address,\r\n\t\troles Object_role);\r\n\tevent RealAuthenticate(uint Count,\r\n\t    bytes32 IDNumber,string RealName,string Gender,string AddressSelect);\r\n\tmodifier onlyBy(address account){\r\n\t\trequire(msg.sender==account);\r\n\t\t_;\r\n\t}\r\n\tconstructor() public{\r\n\t\ttheperson = msg.sender;\r\n\t\tcount=0;\r\n\t\t/*ObjectDB[0x00].name=\"ChairMan\";\r\n\t\tObjectDB[0x00].password=;\r\n\t\tObjectDB[0x00].email=;\r\n\t\tObjectDB[0x00].object_role=roles.none;\r\n\t\tObjectDB[0x00].object_address=0x00;\r\n\t\tcount_info.push(count);\r\n\t\tname_info.push(\"ChairMan\");\r\n\t\temail_info.push(0x313130313939353337374071712e636f6d000000000000000000000000000000);\r\n\t\tpassword_info.push(0x4689bd31f0000000000000000000000000000000000000000000000000000000);\r\n\t\tobject_role_info.push(roles.none);\r\n\t\taddress_info.push(0x00);\r\n\t\tcount++;*/\r\n\t}\r\n\t///设置用户对象信息\r\n\tfunction SetObjectInfo(bytes32 _name,bytes32 _password,\r\n\t\tbytes32 _email,roles _object_role)public returns(bool){\r\n\t\tObjectDB[count].name=_name;\r\n\t\tObjectDB[count].password=_password;\r\n\t\tObjectDB[count].email=_email;\r\n\t\tObjectDB[count].object_role=_object_role;\r\n\t\tObjectDB[count].object_address=msg.sender;\r\n\t\tcount_info.push(count);\r\n\t\tname_info.push(_name);\r\n\t\temail_info.push(_email);\r\n\t\tpassword_info.push(_password);\r\n\t\taddress_info.push(msg.sender);\r\n\t\tobject_role_info.push(_object_role);\r\n\t\tcount++;\r\n\t\temit LoginSetInfo(_name,_email,_object_role);\r\n\t\treturn true;\r\n\t}\r\n\t///获取用户对象信息\r\n\tfunction GetObjectInfo(uint _count) public view returns(bytes32,bytes32,address,\r\n\t\troles){\r\n\t\treturn(ObjectDB[_count].name,\r\n\t\tObjectDB[_count].email,\r\n\t\tObjectDB[_count].object_address,\r\n\t\tObjectDB[_count].object_role);\r\n\t}\r\n\t///实名认证\r\n\tfunction RealNameAuthenticate(uint _count,bytes32 _IDnumber,string _realName,string _addressSelect,\r\n\t    string _gender)public returns(bool){\r\n\t    ObjectDB[_count].IDnumber=_IDnumber;\r\n\t    ObjectDB[_count].realName=_realName;\r\n\t    ObjectDB[_count].addressSelect=_addressSelect;\r\n\t    ObjectDB[_count].gender=_gender;\r\n\t    emit RealAuthenticate(_count,_IDnumber,_realName,_addressSelect,_gender);\r\n\t    return true;\r\n\t}\r\n\t///获取身份证号 \r\n\tfunction GetRealName(uint _count)public view returns(bytes32,string,string,string){\r\n\t    return (ObjectDB[_count].IDnumber,ObjectDB[_count].realName,ObjectDB[_count].gender,ObjectDB[_count].addressSelect);\r\n\t}\r\n    ///获取所有用户信息 \r\n\tfunction GetAllObjectInfo() public view returns(uint[] memory,address[] memory,\r\n\t\tbytes32[] memory,bytes32[] memory,roles[] memory){\r\n\t\treturn(count_info,\r\n\t\t\taddress_info,\r\n\t\t\tname_info,\r\n\t\t\temail_info,\r\n\t\t\tobject_role_info);\r\n\t}\r\n\t///登录\r\n\tfunction login(bytes32 _email,bytes32 _password) public view returns(roles,uint){\r\n\t    if(_email==0x313130313939353337374071712e636f6d000000000000000000000000000000){\r\n\t        require(_password==0x4689bd31f0000000000000000000000000000000000000000000000000000000);\r\n\t        return (roles.none,0);\r\n\t    }else{\r\n\t        uint k;\r\n\t        for(k=0;k<count;k++){\r\n\t            if(ObjectDB[k].email==_email){\r\n\t               require(ObjectDB[k].password==_password);\r\n\t               return (ObjectDB[k].object_role,k);\r\n\t            }\r\n\t        }\r\n\t    }\r\n\t    require(_email==0x313130313939353337374071712e636f6d000000000000000000000000000000);\r\n\t    require(_password==0x4689bd31f0000000000000000000000000000000000000000000000000000000);\r\n\t    return (roles.none,0);\r\n\t}\r\n\t///设置用户所需的对象身份\r\n\tfunction SetRole(uint _count,roles _role)public returns(bool){\r\n\t\tObjectDB[_count].object_role=_role;\r\n\t\temit LoginSetRole(ObjectDB[_count].name,\r\n\t\t\tmsg.sender,\r\n\t\t\t_role);\r\n\t\treturn true;\r\n\t}\r\n\t///获取用户所需的对象身份\r\n\tfunction GetRole(uint _count) public view returns(roles,bytes32){\r\n\t\treturn(ObjectDB[_count].object_role,\r\n\t\t\tObjectDB[_count].name);\r\n\t}\r\n\tfunction GetCount()view public returns(uint){\r\n\t    return(count);\r\n\t}\r\n}\r\n///追溯合约\r\ncontract Ascend is Client{\r\n    enum classification{Antiqu,Jade,Jewellery,other}\r\n    enum grades{FirstGrade,SecondGrade,ThirdGrade,other}\r\n\tstruct Product{\t\t///产品结构体信息\r\n\t\tbytes32 product_id;\r\n\t\tbytes32 product_name;\r\n\t\tbytes32 product_password;\r\n\t\tclassification product_class;\r\n\t\tbytes32 product_status;\r\n\t\tgrades product_grade;\r\n\t\tbytes32 product_weight;\r\n\t\tbytes32 product_certificate_name;\r\n\t\tbytes32 product_certificate_weight;\r\n\t\tbytes32 product_certificate_source;\r\n\t\tbytes32 product_producer_name;\r\n\t\taddress product_producer_address;\r\n\t\tuint product_owner_count;\r\n\t\tuint product_appraiser_count;\r\n\t\tuint product_identify_info_count;\r\n\t\tbytes32[] product_appraiser;\r\n\t\tbytes32[] product_identify_info;\r\n\t\tbytes32[] product_time;\r\n\t\tbytes32[] product_owner_name;\r\n\t\tbytes32[] product_owner_email;\r\n\t\taddress[] product_owner_address;\r\n\t\troles[] product_owner;\r\n\t}\r\n\tmapping(uint => Product)ProductDB;\r\n\tuint product_count;\r\n\tuint trade_product_count;\r\n\tuint[] product_count_info;\r\n\tbytes32[] product_id_info;\r\n\tbytes32[] product_name_info;\r\n\tbytes32[] product_producer_time_info;\r\n\tbytes32[] product_producer_name_info;\r\n\taddress[] product_producer_address_info;\r\n\tclassification[] product_class_info;\r\n\tmodifier onlyProducer(uint _count){\r\n\t\trequire(ObjectDB[_count].object_role==roles.Producer);\r\n\t\t_;\r\n\t}\r\n\tmodifier onlyTradesman(uint _count){\r\n\t\trequire(ObjectDB[_count].object_role==roles.Tradesman);\r\n\t\t_;\r\n\t}\r\n\tmodifier onlyConsumer(uint _count){\r\n\t\trequire(ObjectDB[_count].object_role==roles.Consumer);\r\n\t\t_;\r\n\t}\r\n\t///生产者设置产品信息日志\r\n\tevent SetProductInfoByProducer(bytes32 Product_id,\r\n\t\tbytes32 Product_name,\r\n\t\tbytes32 Product_password,\r\n\t\tclassification Product_class,\r\n\t\tbytes32 _product_status,\r\n\t\tgrades _product_grade,\r\n\t\taddress Producer_address);\r\n\tevent SetProductInfoByProducerSecond(bytes32 Product_weight,\r\n\t\t\tbytes32 Product_certificate_name,\r\n\t\t    bytes32 Product_certificate_weight,\r\n\t\t    bytes32 Product_certificate_source,\r\n\t\t    uint Product_appraiser_length,\r\n\t\t    uint Product_identify_info_length);\r\n\t///其他人设置产品信息日志\r\n\tevent SetProductInfoByOthers(bytes32 Product_id,\r\n\t\tbytes32 Product_name,\r\n\t\tbytes32 Product_password,\r\n\t\taddress Others_address);\r\n\tconstructor() public{\r\n\t\tproduct_count = 0;\r\n\t}\r\n\t///生产者录入产品信息\r\n\tfunction ProducerSetProductInfo(uint _count,bytes32 _product_id,\r\n\t\tbytes32 _product_name,bytes32 _product_password,classification _product_class,\r\n\t\tbytes32 _product_status,grades _product_grade,bytes32 _product_time)public returns(bool){\r\n\t\tProductDB[product_count].product_id=_product_id;\r\n\t\tProductDB[product_count].product_name=_product_name;\r\n\t\tProductDB[product_count].product_password=_product_password;\r\n\t\tProductDB[product_count].product_class=_product_class;\r\n\t\tProductDB[product_count].product_producer_name=ObjectDB[_count].name;\r\n\t\tProductDB[product_count].product_producer_address=msg.sender;\r\n\t\tProductDB[product_count].product_status=_product_status;\r\n\t\tProductDB[product_count].product_grade=_product_grade;\r\n\t\tProductDB[product_count].product_owner_count=1;\r\n\t\tProductDB[product_count].product_time.push(_product_time);\r\n\t\tProductDB[product_count].product_owner_name.push(ObjectDB[_count].name);\r\n\t\tProductDB[product_count].product_owner_email.push(ObjectDB[_count].email);\r\n\t\tProductDB[product_count].product_owner_address.push(msg.sender);\r\n\t\tProductDB[product_count].product_owner.push(ObjectDB[_count].object_role);\r\n\t\tproduct_count_info.push(product_count);\r\n\t\tproduct_id_info.push(_product_id);\r\n\t\tproduct_name_info.push(_product_name);\r\n\t\tproduct_producer_name_info.push(ObjectDB[_count].name);\r\n\t\tproduct_producer_address_info.push(msg.sender);\r\n\t\tproduct_class_info.push(_product_class);\r\n\t\tproduct_producer_time_info.push(_product_time);\r\n\t\temit SetProductInfoByProducer(_product_id,\r\n\t\t\t_product_name,\r\n\t\t\t_product_password,\r\n\t\t\t_product_class,\r\n\t\t\t_product_status,\r\n\t\t\t_product_grade,\r\n\t\t\tmsg.sender);\r\n\t\treturn true;\r\n\t}\r\n\tfunction ProducerSetProductInfoSecond(bytes32 _product_weight,bytes32 _product_certificate_name,\r\n\t\tbytes32 _product_certificate_weight,bytes32 _product_certificate_source,bytes32[] memory _product_appraiser,\r\n\t\tbytes32[] memory _product_identify_info)public returns(bool){\r\n\t\tProductDB[product_count].product_weight=_product_weight;\r\n\t\tProductDB[product_count].product_certificate_name=_product_certificate_name;\r\n\t\tProductDB[product_count].product_certificate_weight=_product_certificate_weight;\r\n\t\tProductDB[product_count].product_certificate_source=_product_certificate_source;\r\n\t\tProductDB[product_count].product_appraiser_count=_product_appraiser.length;\r\n\t\tfor(uint i=0;i<_product_appraiser.length;i++){\r\n\t\t    ProductDB[product_count].product_appraiser.push(_product_appraiser[i]);\r\n\t\t}\r\n\t\tProductDB[product_count].product_identify_info_count=_product_identify_info.length;\r\n\t\tfor(uint j=0;j<_product_identify_info.length;j++){\r\n\t\t    ProductDB[product_count].product_identify_info.push(_product_identify_info[j]);\r\n\t\t}\r\n\t\tproduct_count++;\r\n\t\temit SetProductInfoByProducerSecond(_product_weight,\r\n\t\t\t_product_certificate_name,\r\n\t\t    _product_certificate_weight,\r\n\t\t    _product_certificate_source,\r\n\t\t    _product_appraiser.length,\r\n\t\t    _product_identify_info.length);\r\n\t\treturn true;\r\n\t}\r\n\t///展示产品信息\r\n\tfunction DisplayProduct() view public returns(uint[] memory,\r\n\t\tbytes32[] memory,bytes32[] memory,classification[] memory,bytes32[] memory,bytes32[] memory,address[] memory){\r\n\t\treturn(product_count_info,\r\n\t\t\tproduct_id_info,\r\n\t\t\tproduct_name_info,\r\n\t\t\tproduct_class_info,\r\n\t\t\tproduct_producer_time_info,\r\n\t\t\tproduct_producer_name_info,\r\n\t\t\tproduct_producer_address_info);\r\n\t}\r\n\t///与自己相关的产品信息\r\n\tfunction GetOwnProduct(uint counter,bytes32 _email) view public returns(bool){\r\n\t\tfor(uint i=0;i<ProductDB[counter].product_owner_email.length;i++){\r\n\t\t    if(ProductDB[counter].product_owner_email[i]==_email){\r\n\t\t        return true;\r\n\t\t    }\r\n\t\t}\r\n\t\treturn false;\r\n\t}\r\n\t///仍属于自己的产品信息\r\n\tfunction GetOwnProductHaving(uint counter,bytes32 _email) view public returns(bool){\r\n\t\tuint i=0;\r\n\t\ti=ProductDB[counter].product_owner_email.length-1;\r\n\t\trequire(ProductDB[counter].product_owner_email[i]==_email);\r\n\t\tDisplayOwnProduct(counter);\r\n\t\treturn true;\r\n\t}\r\n\t///展示自己的产品信息\r\n\tfunction DisplayOwnProduct(uint counter) view public returns(uint,\r\n\t\tbytes32,bytes32,classification,bytes32,address){\r\n\t\treturn(counter,\r\n\t\t\tProductDB[counter].product_id,\r\n\t\t\tProductDB[counter].product_name,\r\n\t\t\tProductDB[counter].product_class,\r\n\t\t\tProductDB[counter].product_producer_name,\r\n\t\t\tProductDB[counter].product_producer_address);\r\n\t}\r\n\t///判断是否拥有此产品\r\n\tfunction JudgeProduct(uint _count,uint _product_count)view public returns(bool){\r\n\t    if(ProductDB[_product_count].product_owner_email[ProductDB[_product_count].product_owner_email.length-1]==ObjectDB[_count].email){\r\n\t        return true;\r\n\t    }\r\n\t    return false;\r\n\t}\r\n\t///其他人录入产品信息\r\n\tfunction OthersSetProductInfo(uint _count,uint _product_count,bytes32 _product_time,\r\n\t    bytes32 _product_password,bytes32 _product_newpassword)public returns(bool){\r\n\t\trequire(ProductDB[_product_count].product_password==_product_password);\r\n\t\tProductDB[_product_count].product_password=_product_newpassword;\r\n\t\tProductDB[_product_count].product_time.push(_product_time);\r\n\t\tProductDB[_product_count].product_owner_name.push(ObjectDB[_count].name);\r\n\t\tProductDB[_product_count].product_owner_email.push(ObjectDB[_count].email);\r\n\t\tProductDB[_product_count].product_owner_address.push(msg.sender);\r\n\t\tProductDB[_product_count].product_owner.push(ObjectDB[_count].object_role);\r\n\t\tProductDB[_product_count].product_owner_count++;\r\n\t\temit SetProductInfoByOthers(ProductDB[_product_count].product_id,\r\n\t\t\tProductDB[_product_count].product_name,\r\n\t\t\tProductDB[_product_count].product_password,\r\n\t\t\tmsg.sender);\r\n\t\treturn true;\r\n\t}\r\n\t///通过追溯码进行追溯\r\n\tfunction FindById(bytes32 _product_id) view public returns(uint,bytes32,\r\n\t\tbytes32,classification,bytes32){\r\n\t\tuint counter=0;\r\n\t\tfor(uint i=0;i<product_count;i++){\r\n\t\t\tif(ProductDB[i].product_id==_product_id){\r\n\t\t\t\tcounter=i;\r\n\t\t\t}\r\n\t\t}\r\n\t\trequire(ProductDB[counter].product_id==_product_id);\r\n\t\treturn(counter,\r\n\t\t    ProductDB[counter].product_id,\r\n\t\t\tProductDB[counter].product_name,\r\n            ProductDB[counter].product_class,\r\n\t\t\tProductDB[counter].product_producer_name);\r\n\t}\r\n\t///通过产品名称进行追溯\r\n\tfunction FindByName(uint counter,bytes32 _product_name)view public returns(uint,bytes32,bytes32,classification,bytes32){\r\n\t    require(ProductDB[counter].product_name==_product_name);\r\n\t    return(counter,\r\n\t\t    ProductDB[counter].product_id,\r\n            ProductDB[counter].product_name,\r\n            ProductDB[counter].product_class,\r\n            ProductDB[counter].product_producer_name);\r\n\t}\r\n    ///通过产品类型查询 \r\n\tfunction FindByClass(uint counter,classification _product_class)view public returns(uint,bytes32,bytes32,classification,bytes32){\r\n\t    require(ProductDB[counter].product_class==_product_class);\r\n\t    return(counter,\r\n\t\t    ProductDB[counter].product_id,\r\n            ProductDB[counter].product_name,\r\n            ProductDB[counter].product_class,\r\n            ProductDB[counter].product_producer_name);\r\n\t}\r\n\t///获取平台产品总数量\r\n\tfunction GetProductCount()view public returns(uint){\r\n\t    return(product_count);\r\n\t}\r\n\t///获取更多产品信息\r\n\tfunction GetMoreInfo(bytes32 _product_id) view public returns(uint,bytes32,bytes32,classification,bytes32,\r\n\t    address,bytes32[] memory,bytes32,grades,bytes32,bytes32,bytes32,bytes32){\r\n\t    uint counter=0;\r\n\t\tfor(uint i=0;i<product_count;i++){\r\n\t\t\tif(ProductDB[i].product_id==_product_id){\r\n\t\t\t\tcounter=i;\r\n\t\t\t}\r\n\t\t}\r\n\t\trequire(ProductDB[counter].product_id==_product_id);\r\n\t    return(counter,\r\n\t        ProductDB[counter].product_id,\r\n\t\t\tProductDB[counter].product_name,\r\n\t\t\tProductDB[counter].product_class,\r\n\t\t\tProductDB[counter].product_producer_name,\r\n\t\t    ProductDB[counter].product_producer_address,\r\n\t\t    ProductDB[counter].product_time,\r\n\t\t    ProductDB[counter].product_status,\r\n\t\t\tProductDB[counter].product_grade,\r\n\t\t\tProductDB[counter].product_weight,\r\n\t\t\tProductDB[counter].product_certificate_name,\r\n\t\t    ProductDB[counter].product_certificate_weight,\r\n\t\t    ProductDB[counter].product_certificate_source);\r\n\t}\r\n\tfunction GetMoreInfoSecond(bytes32 _product_id) view public returns(uint,uint,bytes32[] memory,bytes32[] memory,\r\n\t\tbytes32[] memory,bytes32[] memory,roles[] memory,address[] memory,uint){\r\n\t    uint counter=0;\r\n\t\tfor(uint i=0;i<product_count;i++){\r\n\t\t\tif(ProductDB[i].product_id==_product_id){\r\n\t\t\t\tcounter=i;\r\n\t\t\t}\r\n\t\t}\r\n\t\trequire(ProductDB[counter].product_id==_product_id);\r\n\t    return(ProductDB[counter].product_appraiser_count,\r\n\t\t    ProductDB[counter].product_identify_info_count,\r\n\t\t\tProductDB[counter].product_appraiser,\r\n\t\t    ProductDB[counter].product_identify_info,\r\n\t\t\tProductDB[counter].product_owner_name,\r\n\t\t\tProductDB[counter].product_owner_email,\r\n\t\t\tProductDB[counter].product_owner,\r\n\t\t    ProductDB[counter].product_owner_address,\r\n\t\t    ProductDB[counter].product_owner_count);\r\n\t}\r\n\tfunction GetMoreInfoThird(bytes32 _product_id) view public returns(bytes32){\r\n\t    uint counter=0;\r\n\t\tfor(uint i=0;i<product_count;i++){\r\n\t\t\tif(ProductDB[i].product_id==_product_id){\r\n\t\t\t\tcounter=i;\r\n\t\t\t}\r\n\t\t}\r\n\t\trequire(ProductDB[counter].product_id==_product_id);\r\n\t    return(ProductDB[counter].product_password);\r\n\t}\r\n}",
  "sourcePath": "C:\\Users\\ZCC\\Desktop\\dachuang\\four\\qklzs\\contracts\\Ascend.sol",
  "compiler": {
    "name": "solc",
    "version": "0.4.24+commit.e67f0147.Emscripten.clang"
  },
  "schemaVersion": "2.0.1",
  "updatedAt": "2019-05-01T06:53:03.453Z"
}