{
  "contractName": "Client",
  "abi": [
    {
      "constant": true,
      "inputs": [],
      "name": "theperson",
      "outputs": [
        {
          "name": "",
          "type": "address"
        }
      ],
      "payable": false,
      "stateMutability": "view",
      "type": "function"
    },
    {
      "inputs": [],
      "payable": false,
      "stateMutability": "nonpayable",
      "type": "constructor"
    },
    {
      "anonymous": false,
      "inputs": [
        {
          "indexed": false,
          "name": "Name",
          "type": "bytes32"
        },
        {
          "indexed": false,
          "name": "Email",
          "type": "bytes32"
        },
        {
          "indexed": false,
          "name": "Object_Role",
          "type": "uint8"
        },
        {
          "indexed": false,
          "name": "Object_Need_Role",
          "type": "uint8"
        }
      ],
      "name": "LoginSetInfo",
      "type": "event"
    },
    {
      "anonymous": false,
      "inputs": [
        {
          "indexed": false,
          "name": "Name",
          "type": "bytes32"
        },
        {
          "indexed": false,
          "name": "Address",
          "type": "address"
        },
        {
          "indexed": false,
          "name": "Object_Need_Role",
          "type": "uint8"
        }
      ],
      "name": "LoginSetRole",
      "type": "event"
    },
    {
      "constant": false,
      "inputs": [
        {
          "name": "_name",
          "type": "bytes32"
        },
        {
          "name": "_password",
          "type": "bytes32"
        },
        {
          "name": "_email",
          "type": "bytes32"
        },
        {
          "name": "_object_role",
          "type": "uint8"
        }
      ],
      "name": "SetObjectInfo",
      "outputs": [
        {
          "name": "",
          "type": "bool"
        }
      ],
      "payable": false,
      "stateMutability": "nonpayable",
      "type": "function"
    },
    {
      "constant": true,
      "inputs": [],
      "name": "GetObjectInfo",
      "outputs": [
        {
          "name": "",
          "type": "bytes32"
        },
        {
          "name": "",
          "type": "bytes32"
        },
        {
          "name": "",
          "type": "address"
        },
        {
          "name": "",
          "type": "uint8"
        },
        {
          "name": "",
          "type": "uint8"
        }
      ],
      "payable": false,
      "stateMutability": "view",
      "type": "function"
    },
    {
      "constant": true,
      "inputs": [],
      "name": "GetAllObjectInfo",
      "outputs": [
        {
          "name": "",
          "type": "uint256[]"
        },
        {
          "name": "",
          "type": "address[]"
        },
        {
          "name": "",
          "type": "bytes32[]"
        },
        {
          "name": "",
          "type": "uint8[]"
        }
      ],
      "payable": false,
      "stateMutability": "view",
      "type": "function"
    },
    {
      "constant": true,
      "inputs": [
        {
          "name": "_email",
          "type": "bytes32"
        },
        {
          "name": "_password",
          "type": "bytes32"
        }
      ],
      "name": "login",
      "outputs": [
        {
          "name": "",
          "type": "uint8"
        }
      ],
      "payable": false,
      "stateMutability": "view",
      "type": "function"
    },
    {
      "constant": false,
      "inputs": [
        {
          "name": "_need_role",
          "type": "uint8"
        }
      ],
      "name": "SetRole",
      "outputs": [
        {
          "name": "",
          "type": "bool"
        }
      ],
      "payable": false,
      "stateMutability": "nonpayable",
      "type": "function"
    },
    {
      "constant": true,
      "inputs": [
        {
          "name": "_address",
          "type": "address"
        }
      ],
      "name": "GetRole",
      "outputs": [
        {
          "name": "",
          "type": "uint8"
        },
        {
          "name": "",
          "type": "bytes32"
        }
      ],
      "payable": false,
      "stateMutability": "view",
      "type": "function"
    }
  ],
  "bytecode": "0x608060405234801561001057600080fd5b5033600860006101000a81548173ffffffffffffffffffffffffffffffffffffffff021916908373ffffffffffffffffffffffffffffffffffffffff16021790555060008081905550610f89806100686000396000f300608060405260043610610083576000357c0100000000000000000000000000000000000000000000000000000000900463ffffffff1680633946520e146100885780634b1daf30146101cc5780635e534bfc14610214578063635a9f2214610288578063990b61e4146102e9578063a77cc75614610388578063e8533811146103df575b600080fd5b34801561009457600080fd5b5061009d610451565b6040518080602001806020018060200180602001858103855289818151815260200191508051906020019060200280838360005b838110156100ec5780820151818401526020810190506100d1565b50505050905001858103845288818151815260200191508051906020019060200280838360005b8381101561012e578082015181840152602081019050610113565b50505050905001858103835287818151815260200191508051906020019060200280838360005b83811015610170578082015181840152602081019050610155565b50505050905001858103825286818151815260200191508051906020019060200280838360005b838110156101b2578082015181840152602081019050610197565b505050509050019850505050505050505060405180910390f35b3480156101d857600080fd5b506101fa600480360381019080803560ff16906020019092919050505061061d565b604051808215151515815260200191505060405180910390f35b34801561022057600080fd5b50610255600480360381019080803573ffffffffffffffffffffffffffffffffffffffff1690602001909291905050506107a5565b6040518083600381111561026557fe5b60ff16815260200182600019166000191681526020019250505060405180910390f35b34801561029457600080fd5b506102c56004803603810190808035600019169060200190929190803560001916906020019092919050505061089d565b604051808260038111156102d557fe5b60ff16815260200191505060405180910390f35b3480156102f557600080fd5b506102fe6109a7565b60405180866000191660001916815260200185600019166000191681526020018473ffffffffffffffffffffffffffffffffffffffff1673ffffffffffffffffffffffffffffffffffffffff16815260200183600381111561035c57fe5b60ff16815260200182600381111561037057fe5b60ff1681526020019550505050505060405180910390f35b34801561039457600080fd5b5061039d610b49565b604051808273ffffffffffffffffffffffffffffffffffffffff1673ffffffffffffffffffffffffffffffffffffffff16815260200191505060405180910390f35b3480156103eb57600080fd5b50610437600480360381019080803560001916906020019092919080356000191690602001909291908035600019169060200190929190803560ff169060200190929190505050610b6f565b604051808215151515815260200191505060405180910390f35b6060806060806002600660036007838054806020026020016040519081016040528092919081815260200182805480156104aa57602002820191906000526020600020905b815481526020019060010190808311610496575b505050505093508280548060200260200160405190810160405280929190818152602001828054801561053257602002820191906000526020600020905b8160009054906101000a900473ffffffffffffffffffffffffffffffffffffffff1673ffffffffffffffffffffffffffffffffffffffff16815260200190600101908083116104e8575b505050505092508180548060200260200160405190810160405280929190818152602001828054801561058857602002820191906000526020600020905b81546000191681526020019060010190808311610570575b505050505091508080548060200260200160405190810160405280929190818152602001828054801561060857602002820191906000526020600020906000905b82829054906101000a900460ff1660038111156105e257fe5b815260200190600101906020826000010492830192600103820291508084116105c95790505b50505050509050935093509350935090919293565b600081600160003373ffffffffffffffffffffffffffffffffffffffff1673ffffffffffffffffffffffffffffffffffffffff16815260200190815260200160002060030160156101000a81548160ff0219169083600381111561067d57fe5b02179055507ff83ae161dfb1b2cfeb9ad2270958da95a5e880b5494b78eabdb9e95891d7e53d600160003373ffffffffffffffffffffffffffffffffffffffff1673ffffffffffffffffffffffffffffffffffffffff1681526020019081526020016000206000015433600160003373ffffffffffffffffffffffffffffffffffffffff1673ffffffffffffffffffffffffffffffffffffffff16815260200190815260200160002060030160159054906101000a900460ff166040518084600019166000191681526020018373ffffffffffffffffffffffffffffffffffffffff1673ffffffffffffffffffffffffffffffffffffffff16815260200182600381111561078757fe5b60ff168152602001935050505060405180910390a160019050919050565b6000803373ffffffffffffffffffffffffffffffffffffffff16600860009054906101000a900473ffffffffffffffffffffffffffffffffffffffff1673ffffffffffffffffffffffffffffffffffffffff1614151561080157fe5b600160008473ffffffffffffffffffffffffffffffffffffffff1673ffffffffffffffffffffffffffffffffffffffff16815260200190815260200160002060030160159054906101000a900460ff16600160008573ffffffffffffffffffffffffffffffffffffffff1673ffffffffffffffffffffffffffffffffffffffff1681526020019081526020016000206000015491509150915091565b60008260001916600160003373ffffffffffffffffffffffffffffffffffffffff1673ffffffffffffffffffffffffffffffffffffffff16815260200190815260200160002060020154600019161415156108f757600080fd5b8160001916600160003373ffffffffffffffffffffffffffffffffffffffff1673ffffffffffffffffffffffffffffffffffffffff168152602001908152602001600020600101546000191614151561094f57600080fd5b600160003373ffffffffffffffffffffffffffffffffffffffff1673ffffffffffffffffffffffffffffffffffffffff16815260200190815260200160002060030160149054906101000a900460ff16905092915050565b6000806000806000600160003373ffffffffffffffffffffffffffffffffffffffff1673ffffffffffffffffffffffffffffffffffffffff16815260200190815260200160002060000154600160003373ffffffffffffffffffffffffffffffffffffffff1673ffffffffffffffffffffffffffffffffffffffff16815260200190815260200160002060020154600160003373ffffffffffffffffffffffffffffffffffffffff1673ffffffffffffffffffffffffffffffffffffffff16815260200190815260200160002060030160009054906101000a900473ffffffffffffffffffffffffffffffffffffffff16600160003373ffffffffffffffffffffffffffffffffffffffff1673ffffffffffffffffffffffffffffffffffffffff16815260200190815260200160002060030160149054906101000a900460ff16600160003373ffffffffffffffffffffffffffffffffffffffff1673ffffffffffffffffffffffffffffffffffffffff16815260200190815260200160002060030160159054906101000a900460ff16945094509450945094509091929394565b600860009054906101000a900473ffffffffffffffffffffffffffffffffffffffff1681565b600084600160003373ffffffffffffffffffffffffffffffffffffffff1673ffffffffffffffffffffffffffffffffffffffff168152602001908152602001600020600001816000191690555083600160003373ffffffffffffffffffffffffffffffffffffffff1673ffffffffffffffffffffffffffffffffffffffff168152602001908152602001600020600101816000191690555082600160003373ffffffffffffffffffffffffffffffffffffffff1673ffffffffffffffffffffffffffffffffffffffff168152602001908152602001600020600201816000191690555081600160003373ffffffffffffffffffffffffffffffffffffffff1673ffffffffffffffffffffffffffffffffffffffff16815260200190815260200160002060030160146101000a81548160ff02191690836003811115610cb057fe5b02179055506003600160003373ffffffffffffffffffffffffffffffffffffffff1673ffffffffffffffffffffffffffffffffffffffff16815260200190815260200160002060030160156101000a81548160ff02191690836003811115610d1457fe5b021790555033600160003373ffffffffffffffffffffffffffffffffffffffff1673ffffffffffffffffffffffffffffffffffffffff16815260200190815260200160002060030160006101000a81548173ffffffffffffffffffffffffffffffffffffffff021916908373ffffffffffffffffffffffffffffffffffffffff1602179055506002600054908060018154018082558091505090600182039060005260206000200160009091929091909150555060038590806001815401808255809150509060018203906000526020600020016000909192909190915090600019169055506004839080600181540180825580915050906001820390600052602060002001600090919290919091509060001916905550600584908060018154018082558091505090600182039060005260206000200160009091929091909150906000191690555060063390806001815401808255809150509060018203906000526020600020016000909192909190916101000a81548173ffffffffffffffffffffffffffffffffffffffff021916908373ffffffffffffffffffffffffffffffffffffffff1602179055505060008081548092919060010191905055507f157a6acb66f04f509c87214b362fa444e23d0b4109512090ce618ae2f3c16e1b85848460036040518085600019166000191681526020018460001916600019168152602001836003811115610f2757fe5b60ff168152602001826003811115610f3b57fe5b60ff16815260200194505050505060405180910390a1600190509493505050505600a165627a7a723058207c3c975e8dab59e03d274ce316a1a9ac68ed1bc6c0d6ce461aacd49e241aff450029",
  "source": "pragma solidity ^0.4.24;\r\n///用户对象合约\r\ncontract Client{\r\n\tenum roles{Producer,Tradesman,Consumer,none}\t///用户身份枚举\r\n\tstruct ObjectInfo{\t\t///对象结构体信息\r\n\t\tbytes32 name;\r\n\t\tbytes32 password;\r\n\t\tbytes32 email;\r\n\t\taddress object_address;\r\n\t\troles object_role;\r\n\t\troles object_need_role;\r\n\t}\r\n\tuint count;\r\n\tmapping(address => ObjectInfo)ObjectDB;\t\t///用户对象\r\n\tuint[] count_info;\r\n\tbytes32[] name_info;\r\n\tbytes32[] email_info;\r\n\tbytes32[] password_info;\r\n\taddress[] address_info;\r\n\troles[] object_role_info;\r\n\taddress public theperson;\r\n\t///对象登录信息设置日志\r\n\tevent LoginSetInfo(bytes32 Name,\r\n\t\tbytes32 Email, \r\n\t\troles Object_Role,\r\n\t\troles Object_Need_Role);\r\n\t///身份设置日志\r\n\tevent LoginSetRole(bytes32 Name, \r\n\t\taddress Address,\r\n\t\troles Object_Need_Role);\r\n\tmodifier onlyBy(address account){\r\n\t\trequire(msg.sender==account);\r\n\t\t_;\r\n\t}\r\n\tconstructor() public{\r\n\t\ttheperson = msg.sender;\r\n\t\tcount=0;\r\n\t}\r\n\t///设置用户对象信息\r\n\tfunction SetObjectInfo(bytes32 _name,bytes32 _password,\r\n\t\tbytes32 _email,roles _object_role)public returns(bool){\r\n\t\tObjectDB[msg.sender].name=_name;\r\n\t\tObjectDB[msg.sender].password=_password;\r\n\t\tObjectDB[msg.sender].email=_email;\r\n\t\tObjectDB[msg.sender].object_role=_object_role;\r\n\t\tObjectDB[msg.sender].object_need_role=roles.none;\r\n\t\tObjectDB[msg.sender].object_address=msg.sender;\r\n\t\tcount_info.push(count);\r\n\t\tname_info.push(_name);\r\n\t\temail_info.push(_email);\r\n\t\tpassword_info.push(_password);\r\n\t\taddress_info.push(msg.sender);\r\n\t\tcount++;\r\n\t\temit LoginSetInfo(_name,_email,_object_role,roles.none);\r\n\t\treturn true;\r\n\t}\r\n\t///获取用户对象信息\r\n\tfunction GetObjectInfo() public view returns(bytes32,bytes32,address,\r\n\t\troles,roles){\r\n\t\treturn(ObjectDB[msg.sender].name,\r\n\t\tObjectDB[msg.sender].email,\r\n\t\tObjectDB[msg.sender].object_address,\r\n\t\tObjectDB[msg.sender].object_role,\r\n\t\tObjectDB[msg.sender].object_need_role);\r\n\t}\r\n\tfunction GetAllObjectInfo() public view returns(uint[] memory,address[] memory,\r\n\t\tbytes32[] memory,roles[] memory){\r\n\t\treturn(count_info,\r\n\t\t\taddress_info,\r\n\t\t\tname_info,\r\n\t\t\tobject_role_info);\r\n\t}\r\n\t///登录\r\n\tfunction login(bytes32 _email,bytes32 _password) public view returns(roles){\r\n\t\trequire(ObjectDB[msg.sender].email==_email);\r\n\t\trequire(ObjectDB[msg.sender].password==_password);\r\n\t\treturn ObjectDB[msg.sender].object_role;   \r\n\t}\r\n\t///设置用户所需的对象身份\r\n\tfunction SetRole(roles _need_role)public returns(bool){\r\n\t\tObjectDB[msg.sender].object_need_role=_need_role;\r\n\t\temit LoginSetRole(ObjectDB[msg.sender].name,\r\n\t\t\tmsg.sender,\r\n\t\t\tObjectDB[msg.sender].object_need_role);\r\n\t\treturn true;\r\n\t}\r\n\t///获取用户所需的对象身份\r\n\tfunction GetRole(address _address) public view returns(roles,bytes32){\r\n\t\tassert(theperson==msg.sender);\r\n\t\treturn(ObjectDB[_address].object_need_role,\r\n\t\t\tObjectDB[_address].name);\r\n\t}\r\n}\r\n///追溯合约\r\ncontract Ascend is Client{\r\n\tstruct Product{\t\t///产品结构体信息\r\n\t\tbytes32 product_id;\r\n\t\tbytes32 product_name;\r\n\t\tbytes32 product_producer_name;\r\n\t\taddress product_producer_address;\r\n\t\tuint product_owner_count;\r\n\t\tbytes32[] product_owner_name;\r\n\t\taddress[] product_owner_address;\r\n\t\troles[] product_owner;\r\n\t\troles product_need_role;\r\n\t}\r\n\tmapping(uint => Product)ProductDB;\r\n\tuint product_count;\r\n\tuint trade_product_count;\r\n\tuint[] product_count_info;\r\n\tbytes32[] product_id_info;\r\n\tbytes32[] product_name_info;\r\n\tbytes32[] product_producer_name_info;\r\n\taddress[] product_producer_address_info;\r\n\tmodifier onlyProducer(address _address){\r\n\t\trequire(ObjectDB[_address].object_role==roles.Producer);\r\n\t\t_;\r\n\t}\r\n\tmodifier onlyTradesman(address _address){\r\n\t\trequire(ObjectDB[_address].object_role==roles.Tradesman);\r\n\t\t_;\r\n\t}\r\n\tmodifier onlyConsumer(address _address){\r\n\t\trequire(ObjectDB[_address].object_role==roles.Consumer);\r\n\t\t_;\r\n\t}\r\n\t///生产者设置产品信息日志\r\n\tevent SetProductInfoByProducer(bytes32 Product_id,\r\n\t\tbytes32 Product_name,\r\n\t\taddress Producer_address);\r\n\t///零售商设置产品信息日志\r\n\tevent SetProductInfoByTradesman(bytes32 Product_id,\r\n\t\tbytes32 Product_name,\r\n\t\taddress Tradesman_address);\r\n\tconstructor() public{\r\n\t\tproduct_count = 0;\r\n\t}\r\n\t///生产者录入产品信息\r\n\tfunction ProducerSetProductInfo(bytes32 _product_id,\r\n\t\tbytes32 _product_name)public returns(bool){\r\n\t\tProductDB[product_count].product_id=_product_id;\r\n\t\tProductDB[product_count].product_name=_product_name;\r\n\t\tProductDB[product_count].product_producer_name=ObjectDB[msg.sender].name;\r\n\t\tProductDB[product_count].product_producer_address=msg.sender;\r\n\t\tProductDB[product_count].product_need_role=ObjectDB[msg.sender].object_need_role;\r\n\t\tProductDB[product_count].product_owner_count=0;\r\n\t\tProductDB[product_count].product_owner_name.push(ObjectDB[msg.sender].name);\r\n\t\tProductDB[product_count].product_owner_address.push(msg.sender);\r\n\t\tProductDB[product_count].product_owner.push(ObjectDB[msg.sender].object_role);\r\n\t\tproduct_count_info.push(product_count);\r\n\t\tproduct_id_info.push(_product_id);\r\n\t\tproduct_name_info.push(_product_name);\r\n\t\tproduct_producer_name_info.push(ObjectDB[msg.sender].name);\r\n\t\tproduct_producer_address_info.push(msg.sender);\r\n\t\tproduct_count++;\r\n\t\temit SetProductInfoByProducer(_product_id,\r\n\t\t\t_product_name,\r\n\t\t\tmsg.sender);\r\n\t\treturn true;\r\n\t}\r\n\t///展示产品信息\r\n\tfunction DisplayProduct() view public returns(uint[] memory,\r\n\t\tbytes32[] memory,bytes32[] memory,bytes32[] memory,address[] memory){\r\n\t\treturn(product_count_info,\r\n\t\t\tproduct_id_info,\r\n\t\t\tproduct_name_info,\r\n\t\t\tproduct_producer_name_info,\r\n\t\t\tproduct_producer_address_info);\r\n\t}\r\n\t///零售商录入产品信息\r\n\tfunction TradesmanSetProductInfo(uint _product_count)public returns(bool){\r\n\t\trequire(ProductDB[_product_count].product_need_role==ObjectDB[msg.sender].object_role);\r\n\t\tProductDB[_product_count].product_need_role=ObjectDB[msg.sender].object_need_role;\r\n\t\tProductDB[_product_count].product_owner_name.push(ObjectDB[msg.sender].name);\r\n\t\tProductDB[_product_count].product_owner_address.push(msg.sender);\r\n\t\tProductDB[_product_count].product_owner.push(ObjectDB[msg.sender].object_role);\r\n\t\tProductDB[_product_count].product_owner_count++;\r\n\t\temit SetProductInfoByTradesman(ProductDB[_product_count].product_id,\r\n\t\t\tProductDB[_product_count].product_name,msg.sender);\r\n\t\treturn true;\r\n\t}\r\n\t///通过追溯码进行追溯\r\n\tfunction FindById(bytes32 _product_id) view public returns(bytes32,\r\n\t\tbytes32,bytes32){\r\n\t\tuint counter=0;\r\n\t\tfor(uint i=0;i<product_count;i++){\r\n\t\t\tif(ProductDB[i].product_id==_product_id){\r\n\t\t\t\tcounter=i;\r\n\t\t\t}\r\n\t\t}\r\n\t\trequire(ProductDB[counter].product_id==_product_id);\r\n\t\treturn(ProductDB[counter].product_id,\r\n\t\t\tProductDB[counter].product_name,\r\n\t\t\tProductDB[counter].product_producer_name);\r\n\t}\r\n\t///通过产品名称进行追溯\r\n\tfunction FindByName(uint i,bytes32 _product_name)view public returns(uint,bytes32,bytes32,bytes32,uint){\r\n\t    for(i;i<product_count;i++){\r\n\t\t\tif(ProductDB[i].product_name==_product_name){\r\n\t\t\t\tbreak;\r\n\t\t\t}\r\n\t\t}\r\n\t\tif(i<product_count){\r\n\t\t    return(FindByName(i,_product_name));\r\n\t\t}else{\r\n\t\t    return;\r\n\t\t}\r\n\t\trequire(ProductDB[i].product_name==_product_name);\r\n\t\treturn(i,\r\n\t\t    ProductDB[i].product_id,\r\n\t\t\tProductDB[i].product_name,\r\n\t\t\tProductDB[i].product_producer_name,\r\n\t\t\tproduct_count);\r\n\t}\r\n\t///获取更多产品信息\r\n\tfunction GetMoreInfo(bytes32 _product_id) view public returns(bytes32,\r\n\t\tbytes32,bytes32,address,bytes32[] memory,roles[] memory,address[] memory,uint){\r\n\t    uint counter=0;\r\n\t\tfor(uint i=0;i<product_count;i++){\r\n\t\t\tif(ProductDB[i].product_id==_product_id){\r\n\t\t\t\tcounter=i;\r\n\t\t\t}\r\n\t\t}\r\n\t\trequire(ProductDB[counter].product_id==_product_id);\r\n\t    return(ProductDB[counter].product_id,\r\n\t\t\tProductDB[counter].product_name,\r\n\t\t\tProductDB[counter].product_producer_name,\r\n\t\t    ProductDB[counter].product_producer_address,\r\n\t\t\tProductDB[counter].product_owner_name,\r\n\t\t\tProductDB[counter].product_owner,\r\n\t\t    ProductDB[counter].product_owner_address,\r\n\t\t    ProductDB[counter].product_owner_count);\r\n\t}\r\n}",
  "sourcePath": "C:\\Users\\ZCC\\Desktop\\dachuang\\qklzs\\contracts\\Ascend.sol",
  "compiler": {
    "name": "solc",
    "version": "0.4.24+commit.e67f0147.Emscripten.clang"
  },
  "schemaVersion": "2.0.1",
  "updatedAt": "2019-03-08T04:58:03.641Z"
}